:107E00001F92CDB7DEB7112484B714BE982F9D7092
:107E100009F0EDD085E08093810082E08093C0007E
:107E200088E18093C10086E08093C2008FEC80934C
:107E3000C40089E2C7D0559A549A81E08BB986E094
:107E400020E33CEF91E0309385002093840096BBC3
:107E5000B09BFECF4D9AA8958150A9F7812C912C0B
:107E600013E001E025E0F22E31E1E32E9DD08134D4
:107E700079F49AD08983ACD08981823811F482E078
:107E800005C0813811F486E001C083E075D071C06F
:107E9000823411F484E103C0853419F485E0A0D064
:107EA00068C0853549F480D0D82E7ED08D2C912C99
:107EB000982A880C991C5CC0863521F484E090D007
:107EC00080E0E4CF843609F036C06ED06DD0D82E75
:107ED0006BD0C82EA12CBB24B39466D0F50181933E
:107EE0005F01DE12FACF74D0F5E4CF1201C0FFCFEC
:107EF000F40117BFE89507B600FCFDCFA401A0E090
:107F0000B1E02C911296CD010197FC01808130E007
:107F1000382BFA01090107BFE89511244E5F5F4F26
:107F2000DA12EFCFF401F7BEE89507B600FCFDCFFB
:107F3000E7BEE8951EC0843771F436D035D0D82E10
:107F400033D046D05401F50185915F0115D0DA9404
:107F5000D110F9CF0EC0853739F43AD08EE10CD06C
:107F600085E90AD086E192CF813511F488E02AD0E4
:107F70002FD080E101D07ACF4D9A9091C00095FF2B
:107F8000FCCF5C9A8093C6008091C00086FFFCCF36
:107F90008091C00080648093C0008EE28A95F1F7E2
:107FA00000C05C984D9A08954D9A8091C00087FF5B
:107FB000FCCF8091C00084FD01C0A8958091C600CF
:107FC0004D9A0895E0E6F0E098E19083808308956B
:107FD000EBDF803219F088E0F5DFFFCF84E1CCCF12
:107FE000CF93C82FE1DFC150E9F7CF91F1CF282E11
:0A7FF00080E0E8DFE0E0FF270994DD
:027FFE00020679
:0400000300007E007B
:100000000C9489040C94BF040C942C190C94BF0418
:100010000C94BF040C94BF040C94BF040C94BF0454
:100020000C94BF040C94BF040C94BF040C94BF0444
:100030000C94BF040C94BF040C94A9140C94BF043A
:100040000C94BF040C94BF040C94611E0C94A11E6C
:100050000C94CB1E0C9433150C94BF040C94BF0469
:100060000C94BF040C94BF040C94BF040C94BF0404
:100070000C94BF040C94931D0C94BF040C94BF0407
:100080000C94BF040C94BF040C94BF040C94BF04E4
:100090000C944A200C94BF040C94BF040C94BF042D
:1000A0000C94BF040C94BF040C94211B0C94BF044B
:1000B0000C94BF04650A650A650A650A650A650A43
:1000C000650A650A650A1E0A220A300A280A2A0AEF
:1000D0002C0A370A3D0A3B0A460A4A0A4E0AED1123
:1000E000F311FC1145125D128E12BB12D912D512FA
:1000F0004D216021D321BF217421FB216E236E236A
:100100006E236E236E236E236E236E239A211A2292
:100110006E236E236E236E236E23BE224B22526506
:1001200073657420726561736F6E3A200053746159
:100130007274696E67206E6F6465206170706C699F
:10014000636174696F6E20760053657474696E67BD
:10015000206E6577206D6F646520002C002C003ABE
:10016000200047657474696E672076616C756573ED
:1001700020617420532E502E0020706F696E7473AE
:10018000002C2077726974696E6720005772697459
:10019000696E67206C69676874696E672074616254
:1001A0006C65207374617274696E6720002C207610
:1001B000616C756520002C204C4544200057726905
:1001C00074696E67206C69676874696E6720746112
:1001D000626C652073657175656E63655F706F69CC
:1001E0006E742000487A0053657474696E672067E6
:1001F0006C6F62616C206672657175656E637920E3
:100200000053657474696E6720676C6F62616C205F
:100210006272696768746E6573732000487A005370
:10022000657474696E6720676C6F62616C206672BA
:10023000657175656E63792000476C6F62616C2033
:100240006272696768746E657373200020706F69ED
:100250006E7473002C2077726974696E6720005782
:10026000726974696E67206475726174696F6E205B
:100270007461626C65207374617274696E672000CA
:1002800046696E6973686564206475726174696F2C
:100290006E207461626C65207772697465004669CE
:1002A0006E6973686564206C69676874696E67203D
:1002B0007461626C6520777269746500207265678D
:1002C000697374657273002C200057726974696ECB
:1002D0006720686F6C64696E672072656769737404
:1002E000657273207374617274696E672000537550
:1002F000707072657373696E67207265706C7900D7
:100300002C2076616C7565200057726974696E6780
:10031000206368616E6E656C20005C0359035503B1
:1003200051034D034903460342033E033A03360398
:10033000320341505000544D500054534B0053452C
:10034000520050574D004E56004D4F4400445552F8
:10035000004C4754004C454400494400414443008C
:100360003A2000206279746573290048616E646CDC
:10037000696E67206E6577206D65737361676520B0
:100380002800536B697070696E6720435243206385
:100390006865636B00427970617373696E67206D85
:1003A000756C7469706C65207265676973746572C9
:1003B000207772697465002072656769737465726D
:1003C000732E002C200052656164696E6720696E8F
:1003D00070757420726567697374657273207374C5
:1003E000617274696E672000207265676973746555
:1003F00072732E002C200052656164696E6720685C
:100400006F6C64696E672072656769737465727377
:10041000207374617274696E67200044697361624D
:100420006C696E67206E6F646520666561747572B5
:1004300065732E00456E61626C696E67206E6F6435
:10044000652066656174757265732E00526573650B
:100450007474696E67206E6F646520616464726590
:10046000737300476F7420626F6F746C6F616420E8
:10047000627574204D4355206973206E6F74206936
:100480006E2070726F6772616D6D696E67206D6F3F
:100490006465002900426F6F746C6F6164206B6546
:1004A0007920646964206E6F74206D6174636820C4
:1004B000657870656374656420280052657365749F
:1004C00074696E6720666F7220626F6F746C6F6103
:1004D000642E0050726F6772616D6D696E67206D7A
:1004E0006F6465206B657920646964206E6F742089
:1004F0006D61746368206578706563746564206BF2
:1005000065790050656E64696E672070726F6772FE
:10051000616D6D696E67206D6F64652E0029004DF9
:100520004355207265736574206B65792064696436
:10053000206E6F74206D61746368206578706563E8
:1005400074656420280052657175657374696E67FF
:10055000204D43552072657365740029004D435545
:10056000207265736574206B657920646964206E00
:100570006F74206D6174636820657870656374655D
:100580006420280052657175657374696E67204D2B
:100590004355207265736574002900466163746F6A
:1005A0007279207265736574206B65792064696463
:1005B000206E6F74206D6174636820657870656368
:1005C00074656420280052756E6E696E67206661DE
:1005D00063746F72792072657365740050656E6420
:1005E000696E6720666163746F72792072657365E6
:1005F000740020696E2070726F6772616D6D696E34
:1006000067206D6F6465006E6F7400207772697487
:1006100065202C00427970617373696E6720726582
:1006200067697374657220005375707072657373B7
:10063000696E67207265706C79002C2076616C752C
:1006400065200057726974696E6720686F6C646911
:100650006E672072656769737465722000476F74F6
:100660002043524320627974657320002068616ED4
:10067000646C696E672066756E6374696F6E206363
:100680006F64652000476F742065786365707469D6
:100690006F6E20004368616E67696E67206E6F64DD
:1006A00065206164647265737320746F2000416417
:1006B0006472657373206368616E67652066616943
:1006C0006C65643A2049442070696E206E6F742016
:1006D00061737365727465642E004164647265733E
:1006E00073206368616E6765206661696C65643A52
:1006F0002063616E6E6F74206368616E676520743D
:100700006F2062726F6164636173742061646472EC
:100710006573732E0041646472657373206368614E
:100720006E6765206661696C65643A206164647215
:1007300065737320616C7265616479206368616EB2
:100740006765642E00416464726573732063686139
:100750006E6765206661696C65643A20696E7661D2
:100760006C696420616464726573732E0052656104
:1007700064696E6720616464726573732066726F6A
:100780006D20454550524F4D2E2E2E00204F46468F
:1007900000204F4E0057726974696E6720636F695D
:1007A0006C200053657474696E672070726F677295
:1007B000616D6D696E67206D6F646500536574745B
:1007C000696E67206E6577206D6F646520002C2050
:1007D0006F63723D0075732C207072657363616C7A
:1007E00065723D004475726174696F6E20002C2043
:1007F000746F703D0053657474696E67206672652E
:100800007175656E637920007573002C002C002CC7
:10081000004E65772070656E64696E672074616252
:100820006C652076616C7565733A20002C207375B9
:1008300062737461746520004D6F646520006465A7
:100840002D6173736572746564006173736572748E
:1008500065640073747265616D206E6F646520005D
:10086000446F776E005570000A000A000A000A0003
:100870000A000A00206279746573206275666665F5
:1008800072656420666F72207478003E00487A00BA
:100890005570646174696E67204E5620667265718A
:1008A00075656E63793A20005570646174696E678E
:1008B000204E56206272696768746E6573733A20C1
:1008C0003078005570646174696E67204E562064FC
:1008D00075726174696F6E207461626C6500557029
:1008E000646174696E67204E56206C69676874692C
:1008F0006E67207461626C650057726974696E6717
:1009000020454550524F4D2064656661756C747387
:100910002E00E9EBF5E085EC98E001C08193EF3F14
:10092000F907E0F3D9F311241FBECFEFD8E0DEBF03
:10093000CDBF84B78093B80514BE0FB6F894A895C0
:1009400080916000886180936000109260000FBE0B
:1009500011E0A0E0B1E0E8EFF4E502C005900D92EF
:10096000AC32B107D9F725E0ACE2B1E001C01D928D
:10097000A83BB207E1F70E94E3250C947A2A0C9475
:10098000000080E090E00E94121960E070E080E0DA
:100990000E94E60C60E070E081E00E94E60C60E0FE
:1009A00070E082E00E94E60C0C942C14882311F075
:1009B00082E301C081E00C94E21480912F019091B8
:1009C0003001089560E070E080E00E94E60C60E095
:1009D00070E081E00E94E60C60E070E082E00E943E
:1009E000E60C80E00E948B1F0E94430680E090E0AE
:1009F0000E9419098FEF9FE70E94320784E09DE370
:100A00000E945B070E9479170C94E308CF93C82FCC
:100A10000E94791461E080E090E00E94541481E02B
:100A20000E9410200E9444200E94711C60E080E01F
:100A300090E00E943D0D6C2F81E090E00E943D0D02
:100A400060E082E090E00E943D0D60E083E090E095
:100A50000E943D0D6C2F84E090E00E943D0D6C2FB4
:100A600085E090E00E943D0D6C2F86E090E00E94B2
:100A70003D0D6C2F87E090E00E943D0D6C2F88E0CB
:100A800090E00E943D0D60E089E090E00E943D0D05
:100A900060E08AE090E00E943D0D6C2F8BE090E0DA
:100AA0000E943D0D81E00E949A140E94811C8BE0FF
:100AB00090E00E94420D40E06DE271E08BE090E03A
:100AC0000E945F0D2AE030E040E062E08BE090E0C1
:100AD0000E94930D40E06EE28BE090E00E947C0D5E
:100AE0002AE030E041E060E08BE090E00E94930D6E
:100AF0000E94D81F0E9429140E94E71F009719F036
:100B00008F3F910511F40E942B2090933001809328
:100B10002F0180E090E00E94861F40E06EE171E0CE
:100B20008BE090E00E945F0D60912F017091300189
:100B30002AE030E041E08BE090E00E94D50D0E9479
:100B4000411C0E94D81481E391E00E948B140E9402
:100B50003E090E944E060E94ED060E94E00C0E9493
:100B600096140E94E11681E00E94C31D80E00E945D
:100B70001513C5E00E9429202FEF81EE94E021504B
:100B800080409040E1F700C00000C15099F760E05C
:100B900080E090E00E94541460E081E090E0CF910A
:100BA0000C94541481309105DCF0833091051CF0D5
:100BB000039761F0089580910601909107010196D5
:100BC00079F41092070110920601089580910401B2
:100BD00090910501019621F41092050110920401F3
:100BE0000895CF93DF93EC010E94110981309105A4
:100BF00028F18330910518F0039791F01FC0809180
:100C00000601909107018C0F9D1F97FF02C08096EF
:100C1000FCCF8F71992790930701809306010EC036
:100C200080910401909105018C0F9D1F97FF02C0D8
:100C30008FEF9FEF9093050180930401DF91CF9197
:100C40000895CF93DF93EC010E9411098130910543
:100C500088F08330910538F0039761F4D093050153
:100C6000C093040107C0C032D10520F4D09307011E
:100C7000C0930601DF91CF91089521E0809708F09D
:100C800020E0822F08958FEF9FEF909307018093CC
:100C90000601909305018093040108950C94430686
:100CA0000E9411098130910578F08330910538F068
:100CB000039751F48091040190910501089580916A
:100CC00006019091070108958FEF9FEF089580919D
:100CD000060190910701089580910401909105010A
:100CE0000895909303018093020108958091020179
:100CF00090910301089582E091E0089584E091E0ED
:100D00000895EF92FF920F931F93CF93DF93C82F15
:100D1000162FF42E052FE22E83E090E00E94420D64
:100D200040E06DEB71E083E090E00E945F0D2AE00F
:100D300030E040E06C2F83E090E00E94930D40E0B3
:100D400066EB71E083E090E00E945F0D2AE030E006
:100D500040E0612F83E090E00E94930D40E06DEA57
:100D600071E083E090E00E945F0D2AE030E041E016
:100D70006F2D702F83E090E00E94D50DD0E0CE0162
:100D80000E943D06882311F0133060F0EE20F1F050
:100D900084E391E0DF91CF911F910F91FF90EF904D
:100DA0000C94F71ECE01880F991FC80FD91FC10FD1
:100DB000D11DCC0FDD1FCC5CDE4F8F2D902F97FF08
:100DC00002C080E090E099838883E0CFDF91CF91EB
:100DD0001F910F91FF90EF90089584E391E00E949E
:100DE000141F0E945A1F9093F7018093F6010E94EE
:100DF000821F9093F5018093F40183E090E00E94BC
:100E0000420D40E069E372E083E090E00E945F0DF4
:100E10004091F6015091F701052E000C660B770BFF
:100E200021E083E090E00E94F70D83E090E00E94D3
:100E3000420D40E06FE172E083E090E00E945F0DC0
:100E40004091F4015091F50160E070E020E083E012
:100E500090E00E94F70D41E06CE172E083E090E0E9
:100E60000C945F0DCF93DF93EC0197FF02C0C0E0BD
:100E7000D0E083E090E00E94420D40E061E072E04B
:100E800083E090E00E945F0D2AE030E041E0BE0187
:100E900083E090E00E94D50DCE010E943D1FD093CB
:100EA000F701C093F601DF91CF9108958091F6018B
:100EB0009091F7010895CF93DF93EC0183E090E0E8
:100EC0000E94420D40E067EE71E083E090E00E94F6
:100ED0005F0DAE0160E070E020E083E090E00E94F2
:100EE000F70D41E064EE71E083E090E00E945F0D59
:100EF000CE010E945E1FD093F501C093F401DF91F3
:100F0000CF9108958091F4019091F5010895EF92A9
:100F1000FF920F931F93CF93DF937B0163E070E009
:100F20000E945A26EC018B011127C8010E943D0640
:100F300081110AC084E391E0DF91CF911F910F915D
:100F4000FF90EF900C94F71EB801660F771F060F05
:100F5000171FC00FD11FCC0FDD1FCC5CDE4FC701A8
:100F6000F7FE02C080E090E099838883E3CF0F937F
:100F70001F93CF93DF9361157105A9F0082FEB0143
:100F800010E04991599120E0612F802F0E94810645
:100F90001F5F1330B1F784E391E0DF91CF911F9190
:100FA0000F910C94F71EDF91CF911F910F9108952F
:100FB00021E00C9481069F92AF92BF92CF92DF9274
:100FC000EF92FF920F931F93CF93DF93F82E6B0155
:100FD0005A01E22E83E090E00E94420D40E06CE86E
:100FE00071E083E090E00E945F0D2AE030E040E095
:100FF0006F2D83E090E00E94930D40E061E871E086
:1010000083E090E00E945F0DA60160E070E020E0C8
:1010100083E090E00E94F70D41E069E771E083E032
:1010200090E00E945F0DC0E08C2F90E08C159D0534
:10103000E8F49F2C9C0E850186E0C89F000D111DD1
:1010400011240115110521F40E942920CF5FECCF56
:10105000D0E0F801419151918F0120E06D2F892D51
:101060000E948106DF5FD330A1F7EECFEE2079F04A
:1010700084E391E0DF91CF911F910F91FF90EF906A
:10108000DF90CF90BF90AF909F900C94F71EDF91B0
:10109000CF911F910F91FF90EF90DF90CF90BF9075
:1010A000AF909F90089584E391E00C94F71E84E341
:1010B00091E00895803288F4633078F490E0FC0188
:1010C000EE0FFF1FE80FF91FE60FF11DEE0FFF1FD8
:1010D000EC5CFE4F80819181089580E090E008955E
:1010E0000F931F93CF93DF936115710571F08032D9
:1010F00060F4082FEB0110E0612F802F0E945A0846
:10110000899399931F5F1330B9F7DF91CF911F91A6
:101110000F9108950F931F93CF93DF93EC010E94DB
:1011200050068C01BE010E94700883E090E00E948E
:10113000420D40E062E671E083E090E00E945F0DC6
:10114000A801110F660B770B20E083E090E00E946E
:10115000F70D40E06FE571E083E090E00E945F0DE5
:1011600048815981052E000C660B770B20E083E047
:1011700090E00E94F70D40E06DE571E083E090E0C3
:101180000E945F0D4A815B81052E000C660B770B78
:1011900020E083E090E00E94F70D40E06BE571E015
:1011A00083E090E00E945F0D4C815D81052E000C74
:1011B000660B770B21E083E090E0DF91CF911F91E8
:1011C0000F910C94F70DE4E3F1E011821082138289
:1011D000128215821482369681E0E43FF807A9F75F
:1011E00084E391E00C94F71E0F931F93CF9380320A
:1011F000910598F426E0289F8001299F100D112465
:101200000C5C1E4FC0E0F801619171918F018C2F31
:101210000E94E60CCF5FC330B1F7CF911F910F91C1
:1012200008958091320190913301089582E391E015
:101230000895CF93DF9384309105ECF4EC0183E0C3
:1012400090E00E94420D40E069E471E083E090E0AC
:101250000E945F0D2AE030E041E0BE0183E090E0B3
:101260000E94D50DD0933301C0933201CE01DF919E
:10127000CF910C941219DF91CF9108958CEF91E0EA
:101280000C94371F0F931F93CF93DF93EC018B01C7
:101290000E943D06882331F0CC0FDD1FC450DE4F85
:1012A000198308838CEF91E0DF91CF911F910F910B
:1012B0000C941A1F9F92AF92BF92CF92DF92EF923F
:1012C000FF920F931F93CF93DF93A82E8B016A0198
:1012D000922E84E090E00E94420D40E06FE572E0C3
:1012E00084E090E00E945F0D2AE030E040E06A2D4B
:1012F00084E090E00E94930D40E064E572E084E0B9
:1013000090E00E945F0DA80160E070E020E084E0C2
:1013100090E00E94F70D41E06CE472E084E090E020
:101320000E945F0DB12C8B2D90E080179107C8F4BF
:10133000880F991FF601E80FF91FE080F180CA2D90
:10134000CB0DD0E0CE010E943D06882331F0CC0FBA
:10135000DD1FC450DE4FF982E8820E942920B39439
:10136000E2CF992079F08CEF91E0DF91CF911F913E
:101370000F91FF90EF90DF90CF90BF90AF909F9034
:101380000C941A1FDF91CF911F910F91FF90EF9056
:10139000DF90CF90BF90AF909F9008958CEF91E039
:1013A0000C941A1F8CEF91E008950E945006880F4C
:1013B000991FFC01E450FE4F808191810895E82F30
:1013C000F0E0EE0FFF1FE450FE4F80819181089501
:1013D000ECEFF1E01192119282E0EC33F807D1F7D3
:1013E0008CEF91E00C941A1F24E130E0DC010E94A4
:1013F000D8266093F8017093F9018093FA019093D5
:10140000FB010C94EF176091F8017091F901809144
:10141000FA019091FB0124E130E040E050E00E94AD
:101420008226C9010895CF93DF93EB0185319105A1
:10143000D0F5FC01E65AFF4F0C94C326CB010E9465
:10144000320703C0CB010E945B070E9479173FC09F
:1014500080E003C081E001C082E00E94E60C37C05A
:10146000CB010E941909CE010E94D20530C0CB01E8
:101470000E94210608C0CB0104C088279927861B3B
:10148000970B0E94F1050E94A11821C0CB010E9478
:1014900071061DC0CB010E94F40919C070933D0272
:1014A00060933C0214C020913C0230913D022130F7
:1014B000310539F02230310551F445970E94420937
:1014C00006C045970E94870702C080E001C081E006
:1014D000DF91CF91089585E790E0089589E090E04D
:1014E0000895CF92DF92EF92FF920F931F93CF93C5
:1014F000DF93182F6B01EA017901B901CA010E943B
:10150000130A882341F001E09701AE01B601812F53
:101510000E942B250DC085E090E00E94420D41E025
:101520006EEE72E085E090E00E945F0D80E090E05A
:10153000DF91CF911F910F91FF90EF90DF90CF90AF
:1015400008955F926F927F928F929F92AF92BF9217
:10155000CF92DF92EF92FF920F931F93CF93DF937F
:1015600000D000D000D0CDB7DEB7582E4B01A42E4E
:10157000752EB22E632E6801422F532F6A2D772DC0
:10158000CE0101960E94870CCE0101960E94B60CF6
:10159000811121C0CE0101960E948F0C4597A8F4BD
:1015A00040E050E0B601CE0101960E94970C7C010C
:1015B000CE0101960E948F0CB7010E94130A8D8103
:1015C0009E8101969E838D83DFCFCE0101960E947E
:1015D000AE0C7C0102C0E12CF12C01E02B2D362D4C
:1015E0004A2D572DB401852D0E946425BC01C401EC
:1015F0000E94CF1D85E090E00E94420D40E06AEC21
:1016000072E085E090E00E945F0D2AE030E040E06B
:101610006A2D85E090E00E94930D40E067EC72E057
:1016200085E090E00E945F0D2AE030E040E06B2D05
:1016300085E090E00E94930D41E06CEB72E085E064
:1016400090E00E945F0DE114F10409F462C00E9471
:101650008C235C010E947E2320E041E0B5010E94C2
:10166000B02080933E02882309F453C080913C024D
:1016700090913D028130910519F1029709F049C01E
:1016800040E050E0B601CE0101960E94A40C6C012E
:10169000CE0101960E948F0C21E0A601B701855171
:1016A0000E945A0980E090E00E9421060E94A11841
:1016B00085E090E00E94420D41E060E872E025C0C4
:1016C00040E050E0B601CE0101960E94A40C6C01EE
:1016D000CE0101960E948F0C382FC70163E070E0A5
:1016E0000E946E2621E0A6018BEE830F0E94DB078D
:1016F00080E090E00E9421060E94A11885E090E021
:101700000E94420D41E06EE972E085E090E00E94A7
:101710005F0D80E090E026960FB6F894DEBF0FBE16
:10172000CDBFDF91CF911F910F91FF90EF90DF9090
:10173000CF90BF90AF909F908F907F906F905F9071
:101740000895AF92BF92CF92DF92EF92FF920F93E4
:101750001F93CF93DF93CDB7DEB728970FB6F894DA
:10176000DEBF0FBECDBFB82E7B018A01A22ECE01F7
:1017700001966C0188E0F60111928A95E9F783E001
:1017800090E09C838B8380E290E09E838D830E9417
:10179000820C9A83898380913E0290E098878F83A0
:1017A000A80145505109440F551F4C0D5D1D01E026
:1017B0002A2DB7018B2D0E945F2428960FB6F8942E
:1017C000DEBF0FBECDBFDF91CF911F910F91FF9074
:1017D000EF90DF90CF90BF90AF900895AF92BF92FF
:1017E000CF92DF92EF92FF920F931F93CF93DF93ED
:1017F000CDB7DEB76A970FB6F894DEBF0FBECDBF88
:10180000B82E7B018A01A22ECE0101966C018AE1DD
:10181000F60111928A95E9F70E9456079A83898307
:101820000E9482079C838B830E9411099E838D8373
:1018300080E00E94E40C98878F8381E00E94E40C92
:101840009A87898782E00E94E40C9C878B870E949C
:1018500050069E878D870E9476069C8B8B8B0E94FC
:10186000030A9E8B8D8B80913C0290913D02988F54
:101870008F8BA80149505109440F551F4C0D5D1D18
:1018800001E02A2DB7018B2D0E94A6246A960FB67F
:10189000F894DEBF0FBECDBFDF91CF911F910F91A6
:1018A000FF90EF90DF90CF90BF90AF90089580E0D1
:1018B00090E0089580910801882319F08150809369
:1018C00008018091080181111CC084E68093080101
:1018D00081E090E00E9418150E940B159C01A8EE73
:1018E000B3E00E94C926605478478640910921E7F9
:1018F00032E040E050E00E94822630930A012093BB
:10190000090108958091090190910A010895FC014F
:101910007183608353834283158214820895FC018E
:101920002081318184819581820F931F0895FC016C
:1019300084819581480F591F440F551FFB01E40F07
:10194000F51F808191810895FC0184819581840F28
:10195000951F880F991F860F971F0895FC0182819C
:10196000938124813581821B930B0895FC0181E0D2
:1019700044815581228133814217530709F080E069
:1019800008958F929F92AF92BF92EF92FF920F9322
:101990001F934B015C01CA01B901A50194010E948A
:1019A0004A26A80197010E948226CA01B9011F9107
:1019B0000F91FF90EF90BF90AF909F908F90089500
:1019C0000E9490160C9479170C94E617CF92DF9230
:1019D000EF92FF920F931F93CF938330F0F58B011B
:1019E000C82F0E9456079801DC010E94D8262FEFCD
:1019F0003FE740E050E00E94822669017A0187E0DB
:101A000090E00E94420D40E069E073E087E090E0E2
:101A10000E945F0D2AE030E040E06C2F87E090E00C
:101A20000E94930D40E060E073E087E090E00E9448
:101A30005F0DB701A6016627772721E087E090E0D8
:101A40000E94F70DB6018C2FCF911F910F91FF903F
:101A5000EF90DF90CF900C949318CF911F910F913E
:101A6000FF90EF90DF90CF900895880F991FFC01B1
:101A7000E65EFC4F859194910895815C9D4FFC0139
:101A800060830895CF93DF93FC01E15CFD4F2081DB
:101A9000222391F0EC010E948C1D882369F0CE0175
:101AA0000E94350D60E00E94871C60E080E693E0B4
:101AB000DF91CF910C94871CDF91CF9108951F93F4
:101AC000CF93DF936115710599F0FC01E15CFD4F47
:101AD0008081882369F0142FEB010E948C1D8823DC
:101AE00039F0612FCE01DF91CF911F910C94871CAB
:101AF000DF91CF911F910895CF93DF93815C9D4F2C
:101B0000FC018081882361F0D42FC62F0E948C1D98
:101B1000882331F06D2F8C2FDF91CF910C94A31C73
:101B2000DF91CF9108950F931F93CF93DF93815C43
:101B30009D4FFC018081882389F08901D42FC62F15
:101B40000E948C1D882351F0A8016D2F8C2F90E0EE
:101B5000DF91CF911F910F910C94C11CDF91CF9118
:101B60001F910F910895CF92DF92EF92FF92CF9342
:101B7000815C9D4FFC018081882389F0C22F6A011E
:101B80007B010E948C1D882351F04C2FC701B601A8
:101B9000CF91FF90EF90DF90CF900C94821DCF916A
:101BA000FF90EF90DF90CF900895EF92FF921F93F8
:101BB000CF93DF93815C9D4FFC018081882389F066
:101BC0007901142FEB010E948C1D882351F0A7018D
:101BD000612FCE01DF91CF911F91FF90EF900C9478
:101BE000C11CDF91CF911F91FF90EF900895CF928C
:101BF000DF92EF92FF92CF93815C9D4FFC01808139
:101C0000882389F0C22F6A017B010E948C1D8823E2
:101C100051F04C2FC701B601CF91FF90EF90DF90AC
:101C2000CF900C94F61CCF91FF90EF90DF90CF9067
:101C30000895CF92DF92EF92FF92CF93815C9D4FF8
:101C4000FC018081882389F0C22F6A017B010E94F8
:101C50008C1D882351F04C2FC701B601CF91FF9006
:101C6000EF90DF90CF900C943C1DCF91FF90EF90C0
:101C7000DF90CF900895EFE3F2E020E030E0AC0198
:101C8000022E02C0559547950A94E2F741704193A0
:101C90002F5F3F4F2C30310591F70895EFE3F2E0CD
:101CA00020E030E080E090E041E050E06191662388
:101CB00049F0BA01022E02C0660F771F0A94E2F7BC
:101CC000862B972B2F5F3F4F2C30310579F70895E6
:101CD00061E080E090E00E94541485E080930B0165
:101CE000089580910B01882319F0815080930B0196
:101CF00080910B01811105C060E080E090E00C94C0
:101D0000541408950F931F93CF93DF93182FEB0173
:101D10000E943B14811167C085E090E00E94420D53
:101D200040E065E876E085E090E00E945F0D2AE003
:101D300030E040E06C2F85E090E00E94930D40E0A1
:101D40006CE676E085E090E00E945F0D2AE030E0EE
:101D500041E060E8610F85E090E00E94930DCF378D
:101D6000D10559F585E090E00E94420D40E06DE517
:101D700076E085E090E00E945F0DE0915302F0E094
:101D8000E45AFC4F20E130E040E0608185E090E0E3
:101D90000E94930D40E06CE285E090E00E947C0D93
:101DA000E0915302F0E0E35AFC4F20E130E041E0E3
:101DB000608185E090E00E94930D0E948323882338
:101DC00091F001E0212FAE0166E572E080918C0276
:101DD0000E949D25BC0186E592E0DF91CF911F9185
:101DE0000F910C94CF1DDF91CF911F910F9108950A
:101DF000CF92DF92FF920F931F93CF93DF93CDB7D4
:101E0000DEB762970FB6F894DEBF0FBECDBF8C0170
:101E1000F62ED72E0E943B1481115EC085E090E023
:101E20000E94420D40E067EF73E085E090E00E9481
:101E30005F0D2AE030E040E0602F85E090E00E94F6
:101E4000930D40E064EF73E085E090E00E945F0D49
:101E50002AE030E040E06F2D85E090E00E94930D95
:101E600041E068EE73E085E090E00E945F0D09308C
:101E7000110550F02F2D3D2DA80166E572E08091EF
:101E80008C020E94EE0B23C0CE0101966C0182E110
:101E9000F60111928A95E9F780918C0290E09A837D
:101EA00089830E94EE1E90E09C838B830E944E0EDD
:101EB0009A8B898BA801440F551F4C0D5D1D01E0C5
:101EC0002F2D66E572E080918C020E94A624BC0151
:101ED00086E592E00E94CF1D62960FB6F894DEBFB1
:101EE0000FBECDBFDF91CF911F910F91FF90DF907B
:101EF000CF900895DF92EF92FF920F931F93CF93AD
:101F0000DF93CDB7DEB72A970FB6F894DEBF0FBECA
:101F1000CDBF8C01D62EF72E0E943B14811169C0D3
:101F200085E090E00E94420D40E066EC73E085E0C1
:101F300090E00E945F0D2AE030E040E0602F85E0F5
:101F400090E00E94930D40E063EC73E085E090E048
:101F50000E945F0D2AE030E040E06D2D85E090E0CA
:101F60000E94930D41E067EB73E085E090E00E94F2
:101F70005F0D0530110550F02D2D3F2DA80166E5B0
:101F800072E080918C020E94A10B2EC00E94E91386
:101F9000811103C0E12CF12C03C092E0E92EF12C59
:101FA0000E94EC13E82A80E092E09A8389831C82E5
:101FB0001B8285E090E09E838D830E94DD049887DC
:101FC0008F83FA86E986A801440F551F81E090E0CF
:101FD0008C0F9D1F480F591F01E02D2D66E572E003
:101FE00080918C020E945F24BC0186E592E00E94F1
:101FF000CF1D2A960FB6F894DEBF0FBECDBFDF917E
:10200000CF911F910F91FF90EF90DF900895EF9285
:10201000FF920F931F93CF93DF93EC017B018A0113
:102020000E943B14882389F085E090E00E94420DD5
:1020300041E065E973E085E090E0DF91CF911F9189
:102040000F91FF90EF900C945F0DC930D10578F09F
:102050009701AE0166E572E080918C020E94A10AB0
:10206000DF91CF911F910F91FF90EF90089501E0C4
:102070009701AE0166E572E080918C020E946425B2
:10208000BC0186E592E0DF91CF911F910F91FF9007
:10209000EF900C94CF1D0F931F93CF938C01C62FFD
:1020A00085E090E00E94420D0F3F110529F020F0DD
:1020B00041E065E477E00EC080918C02882321F036
:1020C00041E065E177E006C00115110549F441E002
:1020D0006AED76E085E090E00E945F0DC0E041C0CF
:1020E000CC2369F00E94E913C82F811108C041E098
:1020F0006EEA76E085E090E00E945F0D32C040E03D
:1021000064E976E085E090E00E945F0D20E130E038
:1021100041E0B80185E090E00E94D50D00938C026B
:10212000802F0E94D60485E090E00E94420D41E09D
:1021300064E374E085E090E00E945F0D87E090E149
:1021400090938502809384028AE79FE090937F02B8
:1021500080937E0288EF9EE09093810280938002BC
:10216000C1E08C2FCF911F910F9108950F931F9372
:10217000CF93DF93EC01162F0E948923082F0E9432
:102180003B1481114FC085E090E00E94420D40E079
:1021900065E977E085E090E00E945F0DAE0160E0C8
:1021A00070E020E085E090E00E94F70D111103C07F
:1021B0006CE877E002C061E977E041E085E090E01B
:1021C0000E945F0D209749F0212FAE0166E572E075
:1021D00080918C020E94570C11C085E090E00E9413
:1021E000420D41E06DE677E085E090E00E945F0DF2
:1021F0000E94EE1E60E090E00E944B10011112C0A0
:1022000001E0212FAE0166E572E080918C020E9410
:10221000ED24BC0186E592E0DF91CF911F910F91F3
:102220000C94CF1DDF91CF911F910F910895CF9303
:10223000DF9385E090E00E94420D41E06CE474E0A1
:1022400085E090E00E945F0DC6E7D2E01E8A80E044
:102250000E94D60485E090E00E94420D41E06BE1CF
:1022600074E085E090E00E945F0D1F861E8619864F
:1022700018861B861A86DF91CF910895BF92CF9260
:10228000DF92EF92FF920F931F93CF93DF936C0136
:102290007B01B0908C0285E090E00E94420D40E00E
:1022A00063E476E085E090E00E945F0D2AE030E094
:1022B00040E06C2D85E090E00E94930D40E06AE3E1
:1022C00076E085E090E00E945F0D2AE030E041E09A
:1022D000B70185E090E00E94D50D0E943B1496E086
:1022E000C916D10409F44DC093E0C916D10409F40C
:1022F00048C0882309F445C085E090E00E94420D63
:1023000040E064E176E085E090E00E945F0DA60188
:1023100060E070E020E085E090E00E94F70D40E092
:102320006BE076E085E090E00E945F0D0E943B1438
:10233000811107C040E067E076E085E090E00E9410
:102340005F0D41E062EF75E017C085E090E00E940C
:10235000420D40E06DE575E085E090E00E945F0D84
:1023600020E130E040E06CE677E785E090E00E9415
:10237000D50D41E06BE575E085E090E00E945F0DD2
:102380001CC10E948923182FC1E0C82789E0C81604
:10239000D104F0F0B701C6010E94130AC823CC2370
:1023A00009F40BC101E09701A60166E572E08B2DEF
:1023B0000E942B25BC0186E592E0DF91CF911F9111
:1023C0000F91FF90EF90DF90CF90BF900C94CF1DB6
:1023D000F601E159FF4F0C94C32661E0C7010E944A
:1023E0004B10C82FDCCF8FEFE816F10409F0B8F6D8
:1023F0008E2D0E94F21ED3CFD1E080918C028111EC
:1024000001C0D0E0CD2399E3E91697EDF90629F54F
:1024100085E090E00E94420D41E01D1798F46CEDBC
:1024200075E085E090E00E945F0D82EE94E090936D
:102430004C0280934B0287E191E190934E0280938E
:102440004D0288C066EC75E085E090E00E945F0D6B
:102450000E94E2040E941711A2CF85E090E00E9442
:10246000420D40E06BE975E085E090E00E945F0D71
:1024700020E130E040E069E377ED85E090E00E9404
:10248000D50D41E069E975E0CBC08CE6E81687E739
:10249000F80609F05ACF85E090E00E94420D41E035
:1024A00064E875E085E090E00E945F0D81E090E0D7
:1024B0000E94861F80E090E016C09CE6E91697E730
:1024C000F906A1F485E090E00E94420D41E066E447
:1024D00075E085E090E00E945F0D81E090E00E9451
:1024E000861F81E090E00E94FD1F67C085E090E0BC
:1024F0000E94420D40E06FE175E085E090E00E94AF
:102500005F0D20E130E040E06CE677E785E090E0A9
:102510000E94D50D41E06DE175E02ECF89E8E81607
:1025200081E3F80601F585E090E00E94420D41E06C
:1025300063E075E085E090E00E945F0D1092540228
:1025400081EC94E090934C0280934B0210924E02E7
:1025500010924D021092500210924F0210925202AD
:10256000109251021CCF85E090E00E94420D41E0A4
:1025700063ED74E055C094E3E91693E4F90689F538
:102580000E943B14882309F444C085E090E00E9437
:10259000420D41E06BEB74E085E090E00E945F0D3E
:1025A00081E090E00E94FD1FFACEC7010E943B0E21
:1025B000F6CEC7010E94EF13F2CE85E090E00E94B4
:1025C000420D41E068E276E085E090E0DF91CF9156
:1025D0001F910F91FF90EF90DF90CF90BF900C94E0
:1025E0005F0D85E090E00E94420D40E065E974E0F7
:1025F00085E090E00E945F0D20E130E040E064E380
:1026000073E485E090E00E94D50D41E063E974E059
:1026100007C085E090E00E94420D41E063E674E06F
:1026200085E090E00E945F0DBACECF93DF93C6E7BE
:10263000D2E08E8B81E090E0988F8F8B1A8E198E6E
:102640000E946B0A9E8F8D8F0E946E0A9C8F8B8FCB
:102650008AE992E09AA389A38EE391E19D878C8712
:1026600082E89EE09D8B8C8B86EB90E19D838C8332
:1026700085E090E00E94420D41E06BE174E085E06E
:1026800090E00E945F0D1F861E86198618861B86A5
:102690001A8624E532E045E552E065EE70E08EE50D
:1026A00093E0DF91CF910C94381E0895CB010895EB
:1026B0009B01A0E0B0E0DC0199278827BC01CD0197
:1026C000620F731F811D911D0895FC01818180316E
:1026D00071F485E090E00E94420D41E062E873E011
:1026E00085E090E00E945F0D80E090E0089582E038
:1026F00090E0089580918C02089581E090918C0281
:10270000911101C080E008951F93CF93DF938091D2
:102710000C01882319F0815080930C010E94571EF0
:102720008093530285E592E00E94C625882319F024
:1027300082E080930C0180915302882381F10E94F2
:10274000680E80910C0181112AC085E090E00E9402
:10275000420D40E06BE673E085E090E00E945F0D83
:102760006091530270E02AE030E040E085E090E0C4
:102770000E94D50D41E063E673E085E090E00E94A1
:102780005F0D4091530250E021E066E772E08EE574
:1027900093E00E94E3200E945C1E1092530284E5A5
:1027A00092E00E94C625882381F010E0C12FD0E07E
:1027B000CC0FDD1FC55BDD4FE881F981309729F033
:1027C0000995198218821F5FF1CFDF91CF911F9178
:1027D0000895809146040895809147040895909348
:1027E00044048093430408958091430490914404E9
:1027F00008958A5B9B4FFC01808108958A5B9B4F03
:10280000FC01608308950E94151C0E943B148823DC
:1028100019F08091460402C00E947D138093450404
:10282000809145040E943B1C809143049091440494
:102830008130910549F018F0029741F00895909188
:10284000470481E0892703C081E001C080E00C9447
:10285000471C1092480408958BE090E00E94420DBE
:1028600041E063EA77E08BE090E00E945F0D81E059
:10287000809348040895809148040895FC01EE0F68
:10288000FF1FEE5EFE4F0190F081E02DDC01AF5D99
:10289000BE4F21E030E0C9010C9002C0880F991FA3
:1028A0000A94E2F780830895FC01E25EFE4F2081E6
:1028B000222311F021E062279C01220F331FFC012B
:1028C000EF5DFE4FD901A85EBE4F0D90BC91A02DCB
:1028D0002C9181E090E0008002C0880F991F0A943B
:1028E000E2F7662311F0822B02C0809582238C933D
:1028F0000895399A3B9A579A60E080E090E00E94F0
:10290000541460E081E090E00E94541460E082E0A2
:1029100090E00C94541422E024BD23E025BD2AEF5E
:1029200027BD90934A0480934904089582E08093E0
:102930006E000895882311F078940895F89408950E
:1029400060914B0470914C0480914D0490914E0421
:1029500008951F920F920FB60F9211248F939F9399
:10296000AF93BF93EF93FF9380914B0490914C04EE
:10297000A0914D04B0914E040196A11DB11D80930C
:102980004B0490934C04A0934D04B0934E04E091FB
:102990004904F0914A0481E08083FF91EF91BF9157
:1029A000AF919F918F910F900FBE0F901F90189530
:1029B00080E480937C008FE880937A0081E08093AC
:1029C0007E000895809310010895909110018091E8
:1029D0001101882319F08150809311018091110118
:1029E000811118C090931101E0914F04F0E0E35F72
:1029F000FE4F808190917C00987F90937C00909115
:102A00007C008770892B80937C0080917A008064A1
:102A100080937A0008959C01A8E8B3E10E94C9263A
:102A20002FEF33E040E050E00E948226C901089574
:102A3000880F991FFC01E05BFB4F80819181089515
:102A4000880F991FFC01E05BFB4F20813181A8E8D2
:102A5000B3E10E94C9262FEF33E040E050E00E942E
:102A60008226C90108951F920F920FB60F9211246A
:102A70002F938F939F93EF93FF93209178008091F2
:102A8000790090E0982F8827820F911DE0914F04E4
:102A9000F0E0EE0FFF1FE05BFB4F9183808380919E
:102AA0004F04823011F08F5F01C080E080934F04AB
:102AB000FF91EF919F918F912F910F900FBE0F90EB
:102AC0001F901895E0E8F0E0808180688083089589
:102AD000E0E8F0E08081806280830895E0E9F0E042
:102AE0008081806280830895E0E8F0E080818F77C4
:102AF00080830895E0E8F0E080818F7D80830895F1
:102B0000E0E9F0E080818F7D80830895CF92DF92AD
:102B1000EF92FF920F931F93CF93DF93D82EC42E83
:102B2000C82FD0E0FE01EE0FFF1FE359FB4F71836A
:102B300060836115710589F020917D0430917E04D8
:102B400040E050E080E090E0EE24EA941FE7F12EB0
:102B500000E010E00E94C10C02C060E070E0CD58BF
:102B6000DB4F81E06115710509F480E0888381E025
:102B700061157105B1F0D81679F0D81640F082E0F1
:102B8000D81221C070939B0060939A001CC0709370
:102B900089006093880017C070938B0060938A004F
:102BA00012C0D81669F0D81638F082E0D8120BC0DF
:102BB0000E9480155A9807C00E947415299803C076
:102BC0000E947A152A98CC2049F1E0915904F0919D
:102BD0005A0480819181039790F48091730481114C
:102BE0000E9462158091740481110E946815809181
:102BF0007504882399F00E946E155A9A0FC05A984E
:102C00000E9474150E947A15DF91CF911F910F9148
:102C1000FF90EF90DF90CF900C948015DF91CF91D3
:102C20001F910F91FF90EF90DF90CF900895CF9379
:102C3000DF9381E694E00E948A080E94D50924E18E
:102C4000AC01249FC001259F900D11249093600436
:102C500080935F0487E090E00E94420D40E061E1D4
:102C600078E087E090E00E945F0DC1E6D4E0488103
:102C70005981052E000C660B770B20E087E090E071
:102C80000E94F70D40E06FE078E087E090E00E945E
:102C90005F0D4A815B81052E000C660B770B20E0EF
:102CA00087E090E00E94F70D40E06DE078E087E07B
:102CB00090E00E945F0D4C815D81052E000C660B3B
:102CC000770B20E087E090E00E94F70D40E06BE09A
:102CD00078E087E090E00E945F0D40915F045091A2
:102CE0006004052E000C660B770B20E087E090E077
:102CF0000E94F70D41E068E078E087E090E0DF9126
:102D0000CF910C945F0D80915604909157040297D7
:102D100031F481E090E00E94F1050C9417160895BB
:102D2000CF93DF93A1E8B0E08C9188618C93E1E9C7
:102D3000F0E0808188618083C0E8D0E08881826093
:102D40008883C0E9D0E08881826088838C9181602B
:102D50008C938081816080835A980E9474150E94B0
:102D60007A150E94801540E060E070E080E00E94EB
:102D7000861540E060E070E081E00E94861540E04A
:102D800060E070E082E00E948615219A229A529AB1
:102D900088E08093A1005B9A0E94160990935A04E0
:102DA000809359040E947B0690935E0480935D0497
:102DB0000E947E0690935C0480935B04DF91CF9128
:102DC000089588E080936900E99AE2E7F0E0808165
:102DD00082608083089588E594E00E94C625882358
:102DE000D1F187E090E00E94420D40E068E378E096
:102DF00087E090E00E945F0DE0915904F0915A0441
:102E00004081518160E070E020E087E090E00E9426
:102E1000F70D40E06CE278E087E090E00E945F0D03
:102E2000409156045091570460E070E021E087E043
:102E300090E00E94F70DE0915904F0915A048081CE
:102E400091818130910529F0029729F40E9483161F
:102E500002C00E94831686E794E00E94C62588235C
:102E600009F443C0E0915904F0915A0480819181A2
:102E70008330910518F4019750F003C00397E9F0EF
:102E800008958091560490915704892B71F56091B3
:102E900067047091680440E080E00E9486156091AC
:102EA000690470916A0440E081E00E948615609197
:102EB0006B0470916C0441E015C0609167047091DF
:102EC000680440E080E00E9486156091690470917A
:102ED0006A0440E081E00E94861560916B04709165
:102EE0006C0440E082E00C948615089510927F04F3
:102EF0000895CF92DF92EF92FF92CF93DF930E94DB
:102F000082076C01E12CF12CBC0176956795CB0111
:102F1000A0E0B0E0BC01CD017C5D8B409F4FA701DC
:102F200096010E94822630937E0420937D0487E0E0
:102F300090E00E94420D40E065EF77E087E090E08E
:102F40000E945F0D20E0B701A60187E090E00E949B
:102F5000F70D40E06EEE77E087E090E00E945F0DB5
:102F600040917D0450917E0460E070E021E087E0B4
:102F700090E00E94F70DCDE6D4E06881798140E0D1
:102F800080E00E9486156A817B8140E081E00E949A
:102F900086156C817D8140E082E00E9486158091DB
:102FA0007D0490917E0490938700809386008091A9
:102FB0007D0490917E049093970080939600DF911A
:102FC000CF91FF90EF90DF90CF900895E82FF0E041
:102FD000EE0FFF1FE359FB4F808191810895CF923F
:102FE000DF92EF92FF92CF93DF936B017C0181E040
:102FF000C816D104E806F10488F481E0C81680E818
:10300000D806E104F10468F481E0C81680E1D8062E
:10301000E104F10448F0C8E0D0E008C0C0E0D1E02D
:1030200005C0C0E1D0E002C0C1E0D0E084E68C9FE2
:1030300090018D9F300D112440E050E060E074E27B
:1030400084EF90E00E94A426C701B6010E944A26A0
:1030500068577C4E8F4F9F4F20E137E240E050E0B1
:103060000E948226DA01C901AA27BB27809378042F
:1030700090937904A0937A04B0937B04C830D1056F
:1030800071F020F4C130D10581F00DC0C031D105FF
:1030900041F0C11581E0D80731F484E007C082E037
:1030A00005C083E003C080E001C081E080937C0420
:1030B00087E090E00E94420D40E064EE77E087E018
:1030C00090E00E945F0D20E0B701A60187E090E04C
:1030D0000E94F70D40E065ED77E087E090E00E9408
:1030E0005F0DAE0160E070E020E087E090E00E94BC
:1030F000F70D40E06EEC77E087E090E00E945F0D16
:10310000409178045091790460917A0470917B0425
:1031100021E087E090E0DF91CF91FF90EF90DF908A
:10312000CF900C94F70D833058F4E82FF0E0EE0FB9
:10313000FF1FE959FB4F7183608381E08093760420
:103140000895E0915904F0915A0480819181813071
:10315000910539F138F08230910519F1039709F49E
:1031600042C00895609167047091680440E080E077
:103170000E9486156091690470916A0440E081E0C4
:103180000E94861560916B0470916C0441E082E0AE
:103190000E94861583E090E0909357048093560434
:1031A0001EC0609167047091680440E080E00E9456
:1031B00086156091690470916A0440E081E00E9484
:1031C000861560916B0470916C0441E082E00E946E
:1031D00086150E941716109257041092560481E02B
:1031E0008093580408955A980E9474150E947A1585
:1031F0000E948015609167047091680440E080E04F
:103200000E9486156091690470916A0440E081E033
:103210000E94861560916B0470916C0440E082E01E
:103220000C948615CF93DF93EC0187E090E00E9429
:10323000420D40E06CEB77E087E090E00E945F0D8C
:10324000AE0160E070E021E087E090E00E94F70DC1
:10325000DF91CF910C94A1181F920F920FB60F928D
:1032600011242F933F934F935F936F937F938F938B
:103270009F93AF93BF93CF93EF93FF93E091590444
:10328000F0915A04808191818230910509F4A1C0A6
:103290008330910509F45EC1019709F0C0C18091A6
:1032A000560490915704892B09F0B9C180917F048D
:1032B0008111B5C1609161047091620440E00E9487
:1032C0008615609163047091640440E081E00E947F
:1032D0008615609165047091660440E082E00E946A
:1032E000861560915F0470916004072E000C880BB6
:1032F000990B0E94EF178091780490917904A09126
:103300007A04B0917B04892B8A2B8B2BB9F18091A5
:103310007F04811133C081E080937F048091A100FC
:10332000887F8093A1001092A5001092A400809144
:103330007804909179049093A9008093A80083B5B4
:10334000816083BD1092A5001092A4009091A1000D
:1033500080917C04892B8093A1008091730481115A
:103360000E9462158091740481110E9468158091F9
:103370007504882319F00E946E155A9A82E090E035
:103380009093570480935604C1E0C09358048091F1
:103390007F04811144C1609167047091680440E02A
:1033A0000E9486156091690470916A0440E081E092
:1033B0000E94861560916B0470916C0441E082E07C
:1033C0000E94861510927F041092570410925604A2
:1033D000BBC080915604909157048130910581F1D2
:1033E00008F1039709F01BC16091670470916804AC
:1033F00040E080E00E9486156091690470916A0443
:1034000040E081E00E94861560916B0470916C042D
:1034100041E082E00E9486151092570410925604F3
:1034200081E095C05A980E9474150E947A150E94F6
:10343000801581E090E0909357048093560487C0F4
:1034400080917F048111EBC06091610470916204EE
:1034500040E00E948615609163047091640440E02E
:1034600081E00E948615609165047091660440E0D9
:1034700082E00E94861560915F0470916004072EBF
:10348000000C880B990B0E94EF17809178049091A3
:103490007904A0917A04B0917B04892B8A2B8B2B21
:1034A000B9F180917F04811133C081E080937F0462
:1034B0008091A100887F8093A1001092A5001092B6
:1034C000A40080917804909179049093A90080934E
:1034D000A80083B5816083BD1092A5001092A4005E
:1034E0009091A10080917C04892B8093A100809110
:1034F000730481110E9462158091740481110E94ED
:10350000681580917504882319F00E946E155A9AE7
:1035100082E090E09093570480935604C1E0C093FA
:10352000580480917F0481117AC05A980E947415C2
:103530000E947A150E94801510927F0483E090E02B
:103540009093570480935604C093580468C08093A6
:10355000580465C0A0915D04B0915E04E0915B04E5
:10356000F0915C042D913C9180819181281739075D
:1035700009F04CC08091780490917904A0917A046C
:10358000B0917B04892B8A2B8B2BB9F180917F041E
:10359000811133C081E080937F048091A100887FF6
:1035A0008093A1001092A5001092A400809178044D
:1035B000909179049093A9008093A80083B58160CD
:1035C00083BD1092A5001092A4009091A10080915B
:1035D0007C04892B8093A1008091730481110E9447
:1035E00062158091740481110E94681580917504A0
:1035F000882319F00E946E155A9A82E090E0909309
:1036000057048093560481E080935804E0915B0452
:10361000F0915C0480819181019691838083FF9178
:10362000EF91CF91BF91AF919F918F917F916F91CA
:103630005F914F913F912F910F900FBE0F901F9070
:1036400018951F920F920FB60F9211242F933F934C
:103650004F935F936F937F938F939F93AF93BF939A
:10366000CF93DF93EF93FF938091A100887F8093A6
:10367000A1001092A5001092A400E0915904F091CD
:103680005A04C081D181C230D10569F1C330D1055E
:1036900009F43FC0219709F052C0809156049091DF
:1036A0005704029709F04BC0609167047091680459
:1036B00040E080E00E9486156091690470916A0480
:1036C00040E081E00E94861560916B0470916C046B
:1036D00041E082E00E94861510927F041092570408
:1036E0001092560429C08091560490915704029775
:1036F00031F55A980E9474150E947A150E9480151F
:1037000010927F0483E090E09093570480935604D6
:1037100013C08091560490915704029781F45A98EF
:103720000E9474150E947A150E94801510927F04E1
:10373000D0935704C093560481E080935804FF91BE
:10374000EF91DF91CF91BF91AF919F918F917F9139
:103750006F915F914F913F912F910F900FBE0F90FE
:103760001F901895EF92FF920F931F93CF93DF93C3
:10377000EC01E62E0E94F913F82E8E0100581B4F23
:10378000F8018081EE2069F0853010F48F5F80832E
:10379000F8018081853049F461E0CE010E94FE137A
:1037A00004C08823A9F38150F2CFF80180818111F0
:1037B00004C060E0CE010E94FE13CE010E94F91306
:1037C000F81661F181E090E00E94420D209719F017
:1037D00060E678E002C065E678E040E081E090E0F5
:1037E0000E945F0D40E063E578E081E090E00E9498
:1037F0005F0DCE010E94F913811103C06EE378E0E2
:1038000002C06AE478E041E081E090E0DF91CF918E
:103810001F910F91FF90EF900C945F0DDF91CF916E
:103820001F910F91FF90EF9008950F931F93CF93E7
:10383000DF9382E090E00E942015EC0180E090E0B0
:103840000E9420158C01C85ED34061E0C93BDB407B
:1038500008F060E081E090E00E94B21B61E0083B6C
:103860001B4008F460E080E090E0DF91CF911F9171
:103870000F910C94B21B882311F05D9A08955D9806
:103880000895559A80E00E943B1C389A0895882339
:1038900011F0409A089540980895680F791FFC012F
:1038A000E617F707C1F0442311F0249101C02081ED
:1038B0008091830590E00196582F3091840553172D
:1038C000E1F3A0918305B0E0AD57BB4F2C938093FB
:1038D00083053196E5CF8091C90080628093C9004D
:1038E00008951092830482E08093C80088E080935A
:1038F000C9008FEC90E09093CD008093CC00429A69
:103900000895E9ECF0E080818062808308951F9340
:10391000CF93DF93EC01162F0E94EA2641E0BC0111
:10392000CE010E944D1C112351F041E061E070E096
:1039300082E798E0DF91CF911F910C944D1CDF91AD
:10394000CF911F9108951F93CF93DF931F92CDB70F
:10395000DEB78983162F40E061E070E0CE0101966A
:103960000E944D1C112339F041E061E070E080E7D6
:1039700098E00E944D1C0F90DF91CF911F91089508
:10398000FFCFFF920F931F93CF93DF93CDB7DEB797
:1039900028970FB6F894DEBF0FBECDBFF62E8E016E
:1039A0000F5F1F4FB8010E94FC26F8010190002014
:1039B000E9F73197BF01601B710B40E0C8010E941D
:1039C0004D1CFF2039F041E061E070E08EE698E0A8
:1039D0000E944D1C28960FB6F894DEBF0FBECDBFD7
:1039E000DF91CF911F910F91FF900895FF920F9358
:1039F0001F93CF93DF93CDB7DEB760970FB6F894E0
:103A0000DEBF0FBECDBFF42E9F938F937F936F9336
:103A100084E291E09F938F931F9280E18F938E01B8
:103A20000F5F1F4F1F930F930E942C27F8010190E7
:103A30000020E9F73197BF01601B710B40E0C8011E
:103A40000E944D1C0FB6F894DEBF0FBECDBFFF2005
:103A500039F041E061E070E08CE698E00E944D1C96
:103A600060960FB6F894DEBF0FBECDBFDF91CF9149
:103A70001F910F91FF900895FF920F931F93CF9383
:103A8000DF93CDB7DEB760970FB6F894DEBF0FBEF9
:103A9000CDBFF42E9F938F937F936F9388E291E035
:103AA0009F938F931F9280E18F938E010F5F1F4F23
:103AB0001F930F930E942C27F80101900020E9F733
:103AC0003197BF01601B710B40E0C8010E944D1C83
:103AD0000FB6F894DEBF0FBECDBFFF2039F041E036
:103AE00061E070E08AE698E00E944D1C60960FB697
:103AF000F894DEBF0FBECDBFDF91CF911F910F9124
:103B0000FF900895442339F041E061E070E088E6D9
:103B100098E00C944D1C089586B182FB882780F9AB
:103B200091E0892708951F920F920FB60F921124EA
:103B30002F938F939F93EF93FF93909183058091A1
:103B40008405981789F0E0918405F0E0ED57FB4F6C
:103B500020818091840590E0019680938405222342
:103B600019F02093CE0005C08091C9008F7D80930D
:103B7000C900FF91EF919F918F912F910F900FBEF0
:103B80000F901F901895882321F08091C1008869BB
:103B900003C08091C10087768093C10008950F9380
:103BA0001F93CF93DF938C01EB0110928A05613252
:103BB0007105F4F088E090E00E94420D2AE030E0C8
:103BC00040E0BE0188E090E00E94D50D40E06BE847
:103BD00078E088E090E00E945F0D2AE030E041E06C
:103BE00060E270E088E090E00E94D50D80E201C0C4
:103BF000862F809389054091890550E0B80181E9BD
:103C000095E00E94F32688E090E00E94420D6091CA
:103C1000890570E02AE030E040E088E090E00E9412
:103C2000D50D41E064E778E088E090E00E945F0D08
:103C30000E94680E5C9AF894E0918A0581E08E0FEC
:103C400080938A05F0E0EF56FA4F80818093C6009A
:103C50008091C10080628093C1008091C100806426
:103C60008093C1007894DF91CF911F910F910895B7
:103C700050938805409387053093860520938505EA
:103C80009093900580938F0570938E0560938D05BA
:103C9000E0ECF0E080818260808387E090E09093A8
:103CA000C5008093C400589A549A5C9808958091F6
:103CB0008B0590918C05089510928C0510928B05C0
:103CC00008951F920F920FB60F9211242F933F93D6
:103CD0004F935F938F939F93EF93FF9320918B0567
:103CE00030918C0580918D0590918E0528173907AC
:103CF000D9F020918F053091900580918B0590919E
:103D00008C05AC014F5F5F4F50938C0540938B0542
:103D1000F901E80FF91F2091C6002083E091870583
:103D2000F091880581E08083FF91EF919F918F91C1
:103D30005F914F913F912F910F900FBE0F901F9069
:103D400018951F920F920FB60F9211248F939F9385
:103D5000EF93FF9390918A0580918905981768F4F5
:103D6000E0918A0581E08E0F80938A05F0E0EF569E
:103D7000FA4F80818093C60005C08091C1008F7D7D
:103D80008093C100FF91EF919F918F910F900FBE93
:103D90000F901F9018951F920F920FB60F9211243B
:103DA0008F939F93EF93FF9390918A05809189055C
:103DB00098130BC0E0918505F091860581E0808322
:103DC0008EE28A95F1F700C05C98FF91EF919F9188
:103DD0008F910F900FBE0F901F90189586E091E085
:103DE0000C940D2A682F86E091E00C942B2ACF9337
:103DF000DF93EC0186E090E00E94420D41E06EED21
:103E000078E086E090E00E945F0D80E00E94102044
:103E100040EC50E061E470E0CE010E941B2A81E09A
:103E2000DF91CF910C94102040EC50E061E470E001
:103E30000C94FD29CF93DF93EC0186E090E00E9483
:103E4000420D41E063EC78E086E090E00E945F0D77
:103E500080E00E94102040E450E061E070E0CE017C
:103E60000E941B2A81E0DF91CF910C94102040E446
:103E700050E061E070E00C94FD29CF93DF93EC01FA
:103E800086E090E00E94420D40E068EA78E086E03B
:103E900090E00E945F0D20E130E041E0BE0186E04D
:103EA00090E00E94D50DBE0184E091E0DF91CF91BA
:103EB0000C943D2A84E091E00C94152ACF93DF9373
:103EC000EC0186E090E00E94420D40E060E978E07D
:103ED00086E090E00E945F0D2AE030E040E0BE0105
:103EE00086E090E00E94D50D41E06DE878E086E044
:103EF00090E00E945F0DBE0182E091E0DF91CF91E2
:103F00000C943D2A82E091E00C94152A682F81E000
:103F100091E00C942B2A0F931F93CF93DF93C82F1C
:103F200086E090E00E94420D41E069EF78E086E093
:103F300090E00E945F0DCC2319F080E00E94F21EF9
:103F40008FEF9FE70E943D1F84E09DE30E945E1F6C
:103F500080E090E00E94861FC0E0D0E000E010E02A
:103F6000CE01800F911F60E070E08F5B9F4F0E9439
:103F70003D2A0E9429200E5F1F4F0630110581F750
:103F80002696C03CD10551F7C1E0D0E001E410E035
:103F900060E070E0CE010E943D2A0E942920229616
:103FA0000C171D07A9F7DF91CF911F910F9108956D
:103FB00080E090E00E940D2A8F3F41F481E00E9452
:103FC0008B1F60E080E090E00C942B2A089581E044
:103FD00091E00E940D2A90E00895E9EBF5E0CF0111
:103FE000895B95402081253C39F428E0EF3FF207BA
:103FF00009F010F43196F3CF0895009719F0019766
:1040000061F008959DE088E10FB6F894A89580933B
:1040100060000FBE90936000FFCF3C9A44980895D3
:10402000882359F09DE088E10FB6F894A895809315
:1040300060000FBE9093600008950FB6F894A895A5
:1040400080916000886180936000109260000FBED4
:104050000895A89508958091B80583FD09C082FD53
:104060000AC081FD0BC080FD0CC080E090E0089587
:1040700085E090E0089584E090E0089583E090E08A
:10408000089582E090E00895E2E6F0E080818160AA
:10409000808308951F920F920FB60F92112460E053
:1040A00080E090E00E94541460E081E090E00E9483
:1040B00054148FEB9DE50197F1F700C000000E94BA
:1040C000292061E080E090E00E94541461E081E0EA
:1040D00090E00E9454148FEB9DE50197F1F700C02A
:1040E00000000E942920DBCF8091B2054B9B04C0C9
:1040F000853050F48F5F06C0811103C01092B10566
:10410000089581508093B2058091B205853021F4E5
:1041100081E08093B1050895882381F3089580910B
:10412000B1050895AC01FC018FEF9FEF70E09F0196
:10413000241B350B2617370794F42191822728E09A
:10414000DC01B695A79580FF06C0CD0131E083273D
:1041500030EA932701C0CD01215091F7E8CF0895AF
:10416000FF920F931F93CF93DF93EC01162F072F2E
:10417000F42E222349F06EEF610FCE010E949220AF
:10418000FF2041F0482F08C00E946513892B99F742
:1041900081E013C0492F982F212F302F2C0F3D1F66
:1041A000F901319781E05081541380E0F901329791
:1041B00041E02081291340E08423DF91CF911F91BA
:1041C0000F91FF9008958F929F92AF92BF92CF92DE
:1041D000DF92EF92FF920F931F93CF93DF93EC0147
:1041E000892B09F47EC2888191E0811190E090933F
:1041F000B305882329F0DB0156969C91981371C270
:10420000998181EF890FE1E0823008F0E0E031E050
:104210008FEF890F863008F030E03E2B21F4965165
:10422000923008F05EC2FA017B01D093B705C093CB
:10423000B6055093B5054093B405222309F120E05B
:1042400040E0BF01CE010E94B020811119C0D7010A
:104250005496ED91FC915597309709F442C28981AB
:104260006FE770E08058DF91CF911F910F91FF9021
:10427000EF90DF90CF90BF90AF909F908F90099478
:104280009980492D50E0FA013197E731F10508F0A6
:1042900025C2E858FF4F0C94C326D701ED91FC913D
:1042A0001197309709F41AC28A8190E0982F8827D5
:1042B0002B81820F911D57964D915C91589786C026
:1042C000D7011296ED91FC911397309709F406C22D
:1042D0008A8190E0982F88272B81820F911D599613
:1042E0004D915C915A9772C0D7011496ED91FC9153
:1042F0001597309709F4F2C12C812F3F11F021114D
:10430000EAC18D818111E7C18A8190E0982F8827C9
:104310003B81830F911DD70157964D915C91589722
:104320008417950708F050C161E02F3F09F060E065
:10433000099556C1F701A680B780A114B10409F40C
:10434000CDC18A8190E0982F88272B81820F911D03
:104350004789508D8417950708F036C16C8170E04D
:10436000762F66272D81620F711D9C01260F371F46
:10437000215031092417350708F026C13AC1D70169
:104380001896ED91FC911997309709F4A7C18A818D
:1043900090E0982F88272B81820F911D5B964D917D
:1043A0005C915C9713C0D7011A96ED91FC911B9715
:1043B000309709F493C18A8190E0982F88272B8148
:1043C000820F911D5D964D915C915E9784179507C4
:1043D00008F0FAC06C8170E0762F66272D81620F9D
:1043E000711D9C01260F371F2150310924173507F5
:1043F00008F0EAC04AC1D7011C96ED91FC911D97C7
:10440000309709F46BC18A8190E0982F88272B811F
:10441000820F911D5D962D913C915E9782179307B7
:1044200008F0D2C06C8170E0762F66272D81620F74
:10443000711D2BC1D7011E96ED91FC911F973097EE
:1044400009F44CC12C8130E0322F22278D81280FB6
:10445000311D8E8190E0A901440F551F84179507E7
:1044600009F0B2C08A8190E0982F88274B81840F91
:10447000911D5D966D917C915E978617970708F068
:10448000A3C0AC01420F531F4150510946175707B3
:1044900008F09AC0FCC0D7015096ED91FC9151975D
:1044A000309709F41BC18A8190E0982F88272B81CF
:1044B000820F911D6C8170E0762F66272D81620F2F
:1044C000711D4E8150E0542F44272F81420F511D02
:1044D000C884D12CDC2CCC242985C20ED11C5D963D
:1044E0000D911C915E975C01A60EB71EB1E0AB1A50
:1044F000B10831E0A016B10608F430E0B1E0801751
:10450000910708F4B0E021E04017510708F420E0DB
:104510002B2B232B5A01AC0CBD1C31E0A31AB10884
:10452000A016B10608F050C021114EC02A8530E017
:104530008601000F111F2017310709F045C0D70170
:1045400091960C91919792961C912B96780120E070
:1045500030E02C153D0581F0A881B0E0BA2FAA27E4
:10456000B9804D018B0C911CD7018D929D927D01DC
:104570002F5F3F4F2296EDCF099532C0D70152965B
:10458000ED91FC915397309709F4A8C08A8190E08F
:10459000982F88272B81820F911D5D962D913C913C
:1045A0005E978217930780F44E8150E0542F442782
:1045B0002F81420F511D6C8170E0762F66272D816F
:1045C000620F711D09950CC062E070E0D70154962E
:1045D000ED91FC915597309719F080E8890D099578
:1045E0001092B7051092B6051092B5051092B40559
:1045F00078C0F701478D50A12796DB0120E0A83055
:10460000B105C0F08E01020F111DF801C0807A01C2
:1046100011E030E0DD24D3940C2D012309F4D12CDA
:10462000F701D1927F013F5F110F383099F718974A
:104630002F5FE5CF9B01E3E036952795EA95E1F7FB
:10464000C20FD11DF880F3E0220F331FFA95E1F776
:10465000EB01C21BD30BC930D10510F0C8E0D0E08C
:10466000B0E0A1E02B2F30E02C173D0760F4240FC1
:10467000351F01E01F2D1A2309F400E0F901008322
:10468000BF5FAA0FEFCFF5019DCF0995A9CFD70145
:1046900091964C91919792965C918E01095F1F4F74
:1046A000C42FD52F60E070E06217730709F48ACF3A
:1046B000D801FC90AF2DB0E0DA2ECC24D8011196B1
:1046C000FC90D601AF0DB11DA993B9936F5F7F4FD9
:1046D0000E5F1F4FE9CF63E070E078CF61E070E0DC
:1046E00075CFDF91CF911F910F91FF90EF90DF90E9
:1046F000CF90BF90AF909F908F9008958091B60516
:104700009091B7050895E091B605F091B7058081C5
:1047100008958091B30508958091B4059091B505F1
:104720000895009731F0FC014083618382E090E0BE
:10473000089580E090E00895009729F0FC016083DF
:1047400081E090E0089580E090E00895009731F0D6
:10475000FC017083618382E090E0089580E090E046
:104760000895EF92FF920F931F93CF93DF9300D0A2
:10477000CDB7DEB78C01E62EF42E0E9492209A83EC
:104780008983F801EE0DF11DA1E0B0E0AC0FBD1F73
:10479000AF0DB11D8C91808341E04F25A1E0B0E0C9
:1047A000AC0FBD1FA40FB11D8C91818382E090E0FE
:1047B0000F900F90DF91CF911F910F91FF90EF908D
:1047C00008954F925F927F928F929F92AF92BF9285
:1047D000CF92DF92EF92FF920F931F93CF93DF93CD
:1047E0006115710541F0EB01888382E0898332E035
:1047F000432E512C02C0412C512C7B01E40CF51CA2
:10480000C22ED12C822F8770960193E03695279582
:104810009A95E1F7882311F02F5F3F4FF70120832E
:1048200080E090E088248394DF01AE19BF09A217CD
:10483000B30714F511825A01A80EB91EA0E0B0E02A
:104840007180E50119915E01112341F0982C0A2E27
:1048500001C0990C0A94EAF7192D01C010E017293C
:10486000118301968C159D0511F43196DDCF1196BB
:10487000A730B10529F7F9CF37FF02C020E030E0BB
:104880002F5F3F4FE201C20FD31F002339F0CB014E
:1048900040E06C2F0E94B123C80FD91FCE01DF91D9
:1048A000CF911F910F91FF90EF90DF90CF90BF902D
:1048B000AF909F908F907F905F904F9008950F934F
:1048C000CF93DF936115710539F0FB01808384E09C
:1048D000818382E090E002C080E090E0322F330FCD
:1048E000FB01E80FF91F309721F03083C1E0D0E0E1
:1048F00002C0C0E0D0E0C80FD91FFA0180E090E00C
:1049000030E082179307A4F4408151813296DB0195
:10491000AC0FBD1F109731F05C9311964C9342E0A1
:1049200050E002C040E050E0C40FD51F0196E9CF2F
:10493000002339F0CB0140E06C2F0E94B123C80F57
:10494000D91FCE01DF91CF910F9108950F93CF938F
:10495000DF936115710539F0FB01808383E081836A
:1049600082E090E002C080E090E0322F330FFB0144
:10497000E80FF91F309721F03083C1E0D0E002C08A
:10498000C0E0D0E0C80FD91FFA0180E090E030E02D
:1049900082179307A4F4408151813296DB01AC0F5A
:1049A000BD1F109731F05C9311964C9342E050E09C
:1049B00002C040E050E0C40FD51F0196E9CF0023AC
:1049C00039F0CB0140E06C2F0E94B123C80FD91FF2
:1049D000CE01DF91CF910F9108950F93CF93DF9385
:1049E0006115710539F0FB01808385E08183C2E0A8
:1049F000D0E002C0C0E0D0E0FB01EC0FFD1F30971B
:104A000029F05083418382E090E002C080E090E092
:104A1000C80FD91F211102C080E001C08FEFFB0138
:104A2000EC0FFD1F309729F08083118282E090E027
:104A300002C080E090E0C80FD91F002339F0CB01FD
:104A400040E06C2F0E94B123C80FD91FCE01DF9127
:104A5000CF910F9108950F93CF93DF936115710557
:104A600039F0FB01808386E08183C2E0D0E002C0A0
:104A7000C0E0D0E0FB01EC0FFD1F309729F0508320
:104A8000418382E090E002C080E090E0C80FD91F2F
:104A9000FB01EC0FFD1F309729F03083218382E06A
:104AA00090E002C080E090E0C80FD91F002339F0E9
:104AB000CB0140E06C2F0E94B123C80FD91FCE015B
:104AC000DF91CF910F9108950F93CF93DF936115ED
:104AD000710539F0FB01808380E18183C2E0D0E081
:104AE00002C0C0E0D0E0FB01EC0FFD1F309729F0C1
:104AF0005083418382E090E002C080E090E0C80FE4
:104B0000D91FFB01EC0FFD1F309729F03083218363
:104B100082E090E002C080E090E0C80FD91F00233F
:104B200039F0CB0140E06C2F0E94B123C80FD91F90
:104B3000CE01DF91CF910F9108950F93CF93DF9323
:104B40006115710531F0FB018083218322E030E0A3
:104B500002C020E030E0FB01E20FF31F309721F0AC
:104B60004083C1E0D0E002C0C0E0D0E0C20FD31F5C
:104B7000002339F0CB0140E06C2F0E94B123C80F15
:104B8000D91FCE01DF91CF910F910895FC012081B3
:104B9000222319F0108281E0089580E00895FC013D
:104BA00080819181009719F0019791838083208102
:104BB000318181E02115310509F080E0232B11F4CA
:104BC00071836083089581E00E94060581E391E08E
:104BD0000E94C625882309F450C00E948413809146
:104BE0002C01882381F064E873E08DE291E00E945B
:104BF000CF258823C1F060E082E090E00E94541449
:104C000010922C0110C064E670E08DE291E00E94E9
:104C1000CF25882341F061E082E090E00E945414A7
:104C200081E080932C010E947A138823B9F00E94BE
:104C30003B14882369F064E670E080E091E00E9414
:104C4000CF25882371F081E090E00E943E1409C0D6
:104C500061E081E090E00E94541403C064EF71E0D1
:104C6000ECCF0E945A0C0E9403140E94710E0E9405
:104C7000E5140E9474200E9429200E943B14C82F32
:104C80000E948F208C2391E089270E94C31D0E94DF
:104C9000EB169CCFDB018F939F930E94DF26BF9181
:104CA000AF91A29F800D911DA39F900DB29F900D7B
:104CB00011240895AA1BBB1B51E107C0AA1FBB1FEB
:104CC000A617B70710F0A61BB70B881F991F5A9598
:104CD000A9F780959095BC01CD01089597FB072E0B
:104CE00016F4009407D077FD09D00E945A2607FCDD
:104CF00005D03EF4909581959F4F089570956195EC
:104D00007F4F0895A1E21A2EAA1BBB1BFD010DC007
:104D1000AA1FBB1FEE1FFF1FA217B307E407F5076B
:104D200020F0A21BB30BE40BF50B661F771F881F47
:104D3000991F1A9469F760957095809590959B01DD
:104D4000AC01BD01CF010895052E97FB1EF4009420
:104D50000E94BB2657FD07D00E94822607FC03D085
:104D60004EF40C94BB2650954095309521953F4FBD
:104D70004F4F5F4F089590958095709561957F4F47
:104D80008F4F9F4F0895EE0FFF1F0590F491E02D78
:104D90000994A29FB001B39FC001A39F700D811D14
:104DA0001124911DB29F700D811D1124911D089534
:104DB0000E94C926B7FF0895821B930B08950E9495
:104DC000C926A59F900DB49F900DA49F800D911DA5
:104DD00011240895FC0105900020E9F78095909535
:104DE0008E0F9F1F0895FB01DC0102C001900D9200
:104DF00041505040D8F708954532510520F44230D3
:104E000010F00C940727FB011082CB010895BB27FB
:104E10004A3031F4992322F4BDE2909581959F4F59
:104E20000C941327BB27FB015527AA27880F991F2E
:104E3000AA1FA41710F0A41B83955051B9F7A05DC9
:104E4000AA3308F0A95DA193009779F7B111B19346
:104E50001192CB010C945329AEE0B0E0E2E3F7E20B
:104E60000C94512A0D891E898F89988D26E02C83F8
:104E70001A83098397FF02C080E090E801979E8320
:104E80008D83AE01455E5F4F698D7A8DCE010196AF
:104E90000E945C274D815E8157FD0AC02F813885B5
:104EA000421753070CF49A01F801E20FF31F108226
:104EB0002E96E4E00C946D2AABE0B0E0E2E6F7E277
:104EC0000C94432A6C017B018A01FC011782168233
:104ED000838181FFCCC1CE0101963C01F601938113
:104EE000F70193FD859193FF81917F01882309F458
:104EF000BAC1853239F493FD859193FF81917F0189
:104F0000853229F4B60190E00E946329E7CF912C05
:104F1000212C312CFFE1F315D8F08B3279F038F4E5
:104F2000803279F08332A1F4232D20611DC08D32AF
:104F300061F0803369F4232D216016C0832D8260D7
:104F4000382EE32DE4603E2E2AC0F32DF8601DC0FC
:104F500037FC2DC020ED280F2A3040F08E32B9F4F6
:104F600036FC81C1232D2064322E19C036FE06C0C6
:104F70008AE0989E200D1124922E11C0EAE02E9E08
:104F8000200D1124222EF32DF0623F2E08C08C3606
:104F900021F4832D8068382E02C0883641F4F70151
:104FA00093FD859193FF81917F018111B3CF982F5C
:104FB0009F7D9554933028F40C5F1F4F9FE3998396
:104FC0000DC0833631F0833771F0833509F059C055
:104FD00021C0F801808189830E5F1F4F882483944C
:104FE000912C530113C02801F2E04F0E511CF8011F
:104FF000A080B18036FE03C0692D70E002C06FEF63
:105000007FEFC5010E9448294C018201F32DFF77F3
:105010003F2E16C0280122E0420E511CF801A0804C
:10502000B18036FE03C0692D70E002C06FEF7FEFE4
:10503000C5010E943D294C01F32DF0683F2E8201ED
:1050400033FC1BC0822D90E088169906B0F4B6019F
:1050500080E290E00E9463292A94F4CFF50137FCA6
:10506000859137FE81915F01B60190E00E9463292E
:1050700021102A9421E0821A91088114910471F779
:10508000E8C0843611F0893641F5F80137FE07C0D3
:1050900060817181828193810C5F1F4F08C06081A4
:1050A0007181072E000C880B990B0E5F1F4FF32D9B
:1050B000FF763F2E97FF09C090958095709561957A
:1050C0007F4F8F4F9F4FF0683F2E2AE030E0A301C3
:1050D0000E949F29882E861845C0853731F4232DDC
:1050E0002F7EB22E2AE030E025C0932D997FB92E75
:1050F0008F36C1F018F4883579F0B5C0803719F0D3
:10510000883721F0B0C0E92FE061BE2EB4FE0DC09B
:10511000FB2DF460BF2E09C034FE0AC0292F266083
:10512000B22E06C028E030E005C020E130E002C029
:1051300020E132E0F801B7FE07C060817181828111
:1051400093810C5F1F4F06C06081718180E090E009
:105150000E5F1F4FA3010E949F29882E8618FB2DEA
:10516000FF773F2E36FE0DC0232D2E7FA22E8914F1
:1051700058F434FE0BC032FC09C0832D8E7EA82E5D
:1051800005C0B82CA32C03C0B82C01C0B92CA4FEB8
:105190000FC0FE01E80DF11D8081803321F49A2DAE
:1051A000997EA92E09C0A2FE06C0B394B39404C090
:1051B0008A2D867809F0B394A3FC11C0A0FE06C026
:1051C000B21488F4280C922C9B180EC0B21460F410
:1051D000B60180E290E00E946329B394F7CFB21445
:1051E00018F42B1802C0982C212CA4FE10C0B60174
:1051F00080E390E00E946329A2FE17C0A1FC03C0D7
:1052000088E790E002C088E590E0B6010CC08A2DE6
:10521000867859F0A1FE02C08BE201C080E2A7FCB3
:105220008DE2B60190E00E946329891438F4B6013A
:1052300080E390E00E9463299A94F7CF8A94F30167
:10524000E80DF11D8081B60190E00E946329811074
:10525000F5CF222009F442CEB60180E290E00E9410
:1052600063292A94F6CFF6018681978102C08FEFD9
:105270009FEF2B96E2E10C945F2AFC0105906150B0
:1052800070400110D8F7809590958E0F9F1F08955C
:10529000FC016150704001900110D8F78095909505
:1052A0008E0F9F1F0895DC01FC01672F71917723FA
:1052B000E1F7329704C07C916D9370836291AE17D1
:1052C000BF07C8F308950F931F93CF93DF93FB019C
:1052D000238121FD03C08FEF9FEF2CC022FF16C05A
:1052E00046815781248135814217530744F4A081B8
:1052F000B1819D012F5F3F4F318320838C932681A5
:1053000037812F5F3F4F3783268314C08B01EC0119
:10531000FB010084F185E02D0995892BE1F6D80188
:1053200016968D919C911797019617969C938E9344
:105330001697CE01DF91CF911F910F910895FA0139
:10534000AA27283051F1203181F1E8946F936E7FC4
:105350006E5F7F4F8F4F9F4FAF4FB1E03ED0B4E0B5
:105360003CD0670F781F891F9A1FA11D680F791FF6
:105370008A1F911DA11D6A0F711D811D911DA11D07
:1053800020D009F468943F912AE0269F1124301917
:10539000305D3193DEF6CF010895462F4770405DB2
:1053A0004193B3E00FD0C9F7F6CF462F4F70405D61
:1053B0004A3318F0495D31FD4052419302D0A9F7BC
:1053C000EACFB4E0A6959795879577956795BA95B6
:1053D000C9F700976105710508959B01AC010A2E7C
:1053E00006945795479537952795BA95C9F7620F53
:1053F000731F841F951FA01D0895DC01CB01FC01C4
:10540000F999FECF06C0F2BDE1BDF89A319600B41D
:105410000D9241505040B8F70895F999FECF92BDD2
:1054200081BDF89A992780B50895A8E1B0E042E0DF
:1054300050E00C94FF29DC01A40FB51F41505040EF
:1054400048F0CB01840F951F2E910E942C2A4150C9
:105450005040D0F70895262FF999FECF92BD81BD17
:10546000F89A019700B4021639F01FBA20BD0FB6A2
:10547000F894FA9AF99A0FBE08950196272F0E9480
:105480002C2A0C942B2A2F923F924F925F926F926C
:105490007F928F929F92AF92BF92CF92DF92EF92C4
:1054A000FF920F931F93CF93DF93CDB7DEB7CA1B45
:1054B000DB0B0FB6F894DEBF0FBECDBF09942A8870
:1054C000398848885F846E847D848C849B84AA8418
:1054D000B984C884DF80EE80FD800C811B81AA81A5
:1054E000B981CE0FD11D0FB6F894DEBF0FBECDBF70
:0854F000ED010895F894FFCFCF
:1054F800F401FFFFFFFFFFFF64FA0005020506073E
:105508000101260026002900280028002B0001019F
:0C55180000010307256C7500256C640081
:00000001FF

